{
	"contractName": "XHT",
	"abi": [
		{
			"inputs": [
				{
					"internalType": "contract Token",
					"name": "_token",
					"type": "address"
				}
			],
			"stateMutability": "nonpayable",
			"type": "constructor"
		},
		{
			"anonymous": false,
			"inputs": [
				{
					"indexed": false,
					"internalType": "uint256",
					"name": "_amount",
					"type": "uint256"
				}
			],
			"name": "Distribute",
			"type": "event"
		},
		{
			"anonymous": false,
			"inputs": [
				{
					"indexed": true,
					"internalType": "address",
					"name": "previousOwner",
					"type": "address"
				},
				{
					"indexed": true,
					"internalType": "address",
					"name": "newOwner",
					"type": "address"
				}
			],
			"name": "OwnershipTransferred",
			"type": "event"
		},
		{
			"anonymous": false,
			"inputs": [
				{
					"indexed": false,
					"internalType": "address",
					"name": "_address",
					"type": "address"
				},
				{
					"indexed": false,
					"internalType": "uint256",
					"name": "_reward",
					"type": "uint256"
				}
			],
			"name": "Reward",
			"type": "event"
		},
		{
			"inputs": [
				{
					"internalType": "uint256",
					"name": "",
					"type": "uint256"
				}
			],
			"name": "addressIndices",
			"outputs": [
				{
					"internalType": "address",
					"name": "",
					"type": "address"
				}
			],
			"stateMutability": "view",
			"type": "function"
		},
		{
			"inputs": [],
			"name": "owner",
			"outputs": [
				{
					"internalType": "address",
					"name": "",
					"type": "address"
				}
			],
			"stateMutability": "view",
			"type": "function"
		},
		{
			"inputs": [],
			"name": "penalty",
			"outputs": [
				{
					"internalType": "uint256",
					"name": "",
					"type": "uint256"
				}
			],
			"stateMutability": "view",
			"type": "function"
		},
		{
			"inputs": [
				{
					"internalType": "uint256",
					"name": "",
					"type": "uint256"
				}
			],
			"name": "periods",
			"outputs": [
				{
					"internalType": "uint256",
					"name": "",
					"type": "uint256"
				}
			],
			"stateMutability": "view",
			"type": "function"
		},
		{
			"inputs": [],
			"name": "pot",
			"outputs": [
				{
					"internalType": "address",
					"name": "",
					"type": "address"
				}
			],
			"stateMutability": "view",
			"type": "function"
		},
		{
			"inputs": [],
			"name": "renounceOwnership",
			"outputs": [],
			"stateMutability": "nonpayable",
			"type": "function"
		},
		{
			"inputs": [],
			"name": "totalStake",
			"outputs": [
				{
					"internalType": "uint256",
					"name": "",
					"type": "uint256"
				}
			],
			"stateMutability": "view",
			"type": "function"
		},
		{
			"inputs": [],
			"name": "totalStakeWeight",
			"outputs": [
				{
					"internalType": "uint256",
					"name": "",
					"type": "uint256"
				}
			],
			"stateMutability": "view",
			"type": "function"
		},
		{
			"inputs": [
				{
					"internalType": "address",
					"name": "newOwner",
					"type": "address"
				}
			],
			"name": "transferOwnership",
			"outputs": [],
			"stateMutability": "nonpayable",
			"type": "function"
		},
		{
			"inputs": [
				{
					"internalType": "address",
					"name": "_staker",
					"type": "address"
				}
			],
			"name": "getStake",
			"outputs": [
				{
					"components": [
						{
							"internalType": "uint256",
							"name": "amount",
							"type": "uint256"
						},
						{
							"internalType": "uint256",
							"name": "period",
							"type": "uint256"
						},
						{
							"internalType": "uint256",
							"name": "startBlock",
							"type": "uint256"
						},
						{
							"internalType": "uint256",
							"name": "reward",
							"type": "uint256"
						},
						{
							"internalType": "uint256",
							"name": "closeBlock",
							"type": "uint256"
						}
					],
					"internalType": "struct XHT.Stake[]",
					"name": "",
					"type": "tuple[]"
				}
			],
			"stateMutability": "view",
			"type": "function"
		},
		{
			"inputs": [
				{
					"internalType": "uint256",
					"name": "_period",
					"type": "uint256"
				}
			],
			"name": "getStakeWeight",
			"outputs": [
				{
					"internalType": "uint256",
					"name": "",
					"type": "uint256"
				}
			],
			"stateMutability": "view",
			"type": "function"
		},
		{
			"inputs": [],
			"name": "getTotalReward",
			"outputs": [
				{
					"internalType": "uint256",
					"name": "",
					"type": "uint256"
				}
			],
			"stateMutability": "view",
			"type": "function"
		},
		{
			"inputs": [
				{
					"internalType": "uint256",
					"name": "_amount",
					"type": "uint256"
				},
				{
					"internalType": "uint256",
					"name": "_period",
					"type": "uint256"
				}
			],
			"name": "addStake",
			"outputs": [
				{
					"internalType": "uint256",
					"name": "",
					"type": "uint256"
				},
				{
					"internalType": "uint256",
					"name": "",
					"type": "uint256"
				},
				{
					"internalType": "uint256",
					"name": "",
					"type": "uint256"
				},
				{
					"internalType": "uint256",
					"name": "",
					"type": "uint256"
				}
			],
			"stateMutability": "nonpayable",
			"type": "function"
		},
		{
			"inputs": [
				{
					"internalType": "uint256",
					"name": "_index",
					"type": "uint256"
				}
			],
			"name": "removeStake",
			"outputs": [
				{
					"internalType": "uint256",
					"name": "",
					"type": "uint256"
				},
				{
					"internalType": "uint256",
					"name": "",
					"type": "uint256"
				},
				{
					"internalType": "uint256",
					"name": "",
					"type": "uint256"
				},
				{
					"internalType": "uint256",
					"name": "",
					"type": "uint256"
				},
				{
					"internalType": "uint256",
					"name": "",
					"type": "uint256"
				}
			],
			"stateMutability": "nonpayable",
			"type": "function"
		},
		{
			"inputs": [],
			"name": "distribute",
			"outputs": [
				{
					"internalType": "bool",
					"name": "",
					"type": "bool"
				}
			],
			"stateMutability": "nonpayable",
			"type": "function"
		},
		{
			"inputs": [
				{
					"internalType": "address",
					"name": "_address",
					"type": "address"
				}
			],
			"name": "setPotAddress",
			"outputs": [
				{
					"internalType": "address",
					"name": "",
					"type": "address"
				}
			],
			"stateMutability": "nonpayable",
			"type": "function"
		},
		{
			"inputs": [
				{
					"internalType": "uint256",
					"name": "_penalty",
					"type": "uint256"
				}
			],
			"name": "setPenalty",
			"outputs": [
				{
					"internalType": "uint256",
					"name": "",
					"type": "uint256"
				}
			],
			"stateMutability": "nonpayable",
			"type": "function"
		},
		{
			"inputs": [
				{
					"internalType": "uint256[]",
					"name": "_periods",
					"type": "uint256[]"
				}
			],
			"name": "setPeriods",
			"outputs": [
				{
					"internalType": "uint256[]",
					"name": "",
					"type": "uint256[]"
				}
			],
			"stateMutability": "nonpayable",
			"type": "function"
		},
		{
			"inputs": [
				{
					"internalType": "uint256",
					"name": "_amount",
					"type": "uint256"
				},
				{
					"internalType": "uint256",
					"name": "_period",
					"type": "uint256"
				},
				{
					"internalType": "address",
					"name": "_address",
					"type": "address"
				}
			],
			"name": "setStake",
			"outputs": [
				{
					"internalType": "uint256",
					"name": "",
					"type": "uint256"
				},
				{
					"internalType": "uint256",
					"name": "",
					"type": "uint256"
				},
				{
					"internalType": "uint256",
					"name": "",
					"type": "uint256"
				},
				{
					"internalType": "uint256",
					"name": "",
					"type": "uint256"
				}
			],
			"stateMutability": "nonpayable",
			"type": "function"
		}
	],
	"bytecode": "0x60806040526000600260006101000a81548173ffffffffffffffffffffffffffffffffffffffff021916908373ffffffffffffffffffffffffffffffffffffffff160217905550600060035560006004556040518060800160405280600162ffffff16815260200161196462ffffff1681526020016202f9b862ffffff1681526020016224339462ffffff168152506007906004620000a09291906200020d565b50600a600855348015620000b357600080fd5b50604051620033fe380380620033fe8339818101604052810190620000d991906200029c565b620000f9620000ed6200014160201b60201c565b6200014960201b60201c565b80600160006101000a81548173ffffffffffffffffffffffffffffffffffffffff021916908373ffffffffffffffffffffffffffffffffffffffff160217905550506200032a565b600033905090565b60008060009054906101000a900473ffffffffffffffffffffffffffffffffffffffff169050816000806101000a81548173ffffffffffffffffffffffffffffffffffffffff021916908373ffffffffffffffffffffffffffffffffffffffff1602179055508173ffffffffffffffffffffffffffffffffffffffff168173ffffffffffffffffffffffffffffffffffffffff167f8be0079c531659141344cd1fd0a4f28419497f9722a3daafe3b4186f6b6457e060405160405180910390a35050565b82805482825590600052602060002090810192821562000253579160200282015b8281111562000252578251829062ffffff169055916020019190600101906200022e565b5b50905062000262919062000266565b5090565b5b808211156200028157600081600090555060010162000267565b5090565b600081519050620002968162000310565b92915050565b600060208284031215620002af57600080fd5b6000620002bf8482850162000285565b91505092915050565b6000620002d582620002f0565b9050919050565b6000620002e982620002c8565b9050919050565b600073ffffffffffffffffffffffffffffffffffffffff82169050919050565b6200031b81620002dc565b81146200032757600080fd5b50565b6130c4806200033a6000396000f3fe608060405234801561001057600080fd5b50600436106101215760003560e01c80637a766460116100ad578063a7df8c5711610071578063a7df8c571461033b578063e4fc6b6d1461036b578063ea4a110414610389578063f2fde38b146103b9578063fd2b5202146103d557610121565b80637a7664601461027d5780637d1fcbfa146102ad5780638b0e9f3f146102cb5780638da5cb5b146102e9578063939624ab1461030757610121565b80634ba2363a116100f45780634ba2363a146101d457806351ba5d57146101f2578063626e0f83146102225780636682063c14610240578063715018a61461027357610121565b80630edd2ffc1461012657806320553b3214610144578063291dd4b3146101745780634a4b674a146101a4575b600080fd5b61012e610408565b60405161013b9190612c83565b60405180910390f35b61015e60048036038101906101599190612442565b61040e565b60405161016b9190612b26565b60405180910390f35b61018e600480360381019061018991906124ac565b6104fb565b60405161019b9190612c83565b60405180910390f35b6101be60048036038101906101b991906124ac565b61058b565b6040516101cb9190612c83565b60405180910390f35b6101dc61061a565b6040516101e99190612a89565b60405180910390f35b61020c60048036038101906102079190612419565b610640565b6040516102199190612a89565b60405180910390f35b61022a610729565b6040516102379190612c83565b60405180910390f35b61025a6004803603810190610255919061253a565b61072f565b60405161026a9493929190612c9e565b60405180910390f35b61027b610be1565b005b61029760048036038101906102929190612419565b610c69565b6040516102a49190612b04565b60405180910390f35b6102b5610d39565b6040516102c29190612c83565b60405180910390f35b6102d3610f74565b6040516102e09190612c83565b60405180910390f35b6102f1610f7a565b6040516102fe9190612a89565b60405180910390f35b610321600480360381019061031c91906124ac565b610fa3565b604051610332959493929190612ce3565b60405180910390f35b610355600480360381019061035091906124ac565b6114d8565b6040516103629190612a89565b60405180910390f35b610373611517565b6040516103809190612b48565b60405180910390f35b6103a3600480360381019061039e91906124ac565b611c4f565b6040516103b09190612c83565b60405180910390f35b6103d360048036038101906103ce9190612419565b611c73565b005b6103ef60048036038101906103ea91906124fe565b611d6b565b6040516103ff9493929190612c9e565b60405180910390f35b60085481565b60606104186121a1565b73ffffffffffffffffffffffffffffffffffffffff16610436610f7a565b73ffffffffffffffffffffffffffffffffffffffff161461048c576040517f08c379a000000000000000000000000000000000000000000000000000000000815260040161048390612c43565b60405180910390fd5b81600790805190602001906104a29291906122c5565b5060078054806020026020016040519081016040528092919081815260200182805480156104ef57602002820191906000526020600020905b8154815260200190600101908083116104db575b50505050509050919050565b6000806000905060005b60078054905081101561058157836007828154811061054d577f4e487b7100000000000000000000000000000000000000000000000000000000600052603260045260246000fd5b9060005260206000200154141561056e5760018161056b9190612e16565b91505b808061057990612f73565b915050610505565b5080915050919050565b60006105956121a1565b73ffffffffffffffffffffffffffffffffffffffff166105b3610f7a565b73ffffffffffffffffffffffffffffffffffffffff1614610609576040517f08c379a000000000000000000000000000000000000000000000000000000000815260040161060090612c43565b60405180910390fd5b816008819055506008549050919050565b600260009054906101000a900473ffffffffffffffffffffffffffffffffffffffff1681565b600061064a6121a1565b73ffffffffffffffffffffffffffffffffffffffff16610668610f7a565b73ffffffffffffffffffffffffffffffffffffffff16146106be576040517f08c379a00000000000000000000000000000000000000000000000000000000081526004016106b590612c43565b60405180910390fd5b81600260006101000a81548173ffffffffffffffffffffffffffffffffffffffff021916908373ffffffffffffffffffffffffffffffffffffffff160217905550600260009054906101000a900473ffffffffffffffffffffffffffffffffffffffff169050919050565b60045481565b60008060008061073d6121a1565b73ffffffffffffffffffffffffffffffffffffffff1661075b610f7a565b73ffffffffffffffffffffffffffffffffffffffff16146107b1576040517f08c379a00000000000000000000000000000000000000000000000000000000081526004016107a890612c43565b60405180910390fd5b600087116107f4576040517f08c379a00000000000000000000000000000000000000000000000000000000081526004016107eb90612c03565b60405180910390fd5b670de0b6b3a764000087101561083f576040517f08c379a000000000000000000000000000000000000000000000000000000000815260040161083690612b63565b60405180910390fd5b60008611610882576040517f08c379a000000000000000000000000000000000000000000000000000000000815260040161087990612be3565b60405180910390fd5b6000805b6007805490508110156108f75787600782815481106108ce577f4e487b7100000000000000000000000000000000000000000000000000000000600052603260045260246000fd5b906000526020600020015414156108e457600191505b80806108ef90612f73565b915050610886565b50600115158115151461093f576040517f08c379a000000000000000000000000000000000000000000000000000000000815260040161093690612c63565b60405180910390fd5b600160009054906101000a900473ffffffffffffffffffffffffffffffffffffffff1673ffffffffffffffffffffffffffffffffffffffff166323b872dd33308b6040518463ffffffff1660e01b815260040161099e93929190612aa4565b602060405180830381600087803b1580156109b857600080fd5b505af11580156109cc573d6000803e3d6000fd5b505050506040513d601f19601f820116820180604052508101906109f09190612483565b506000600560008873ffffffffffffffffffffffffffffffffffffffff1673ffffffffffffffffffffffffffffffffffffffff168152602001908152602001600020805490501415610aa0576006869080600181540180825580915050600190039060005260206000200160009091909190916101000a81548173ffffffffffffffffffffffffffffffffffffffff021916908373ffffffffffffffffffffffffffffffffffffffff1602179055505b60006040518060a001604052808a81526020018981526020014381526020016000815260200160008152509050600560008873ffffffffffffffffffffffffffffffffffffffff1673ffffffffffffffffffffffffffffffffffffffff16815260200190815260200160002081908060018154018082558091505060019003906000526020600020906005020160009091909190915060008201518160000155602082015181600101556040820151816002015560608201518160030155608082015181600401555050610b7f896003546121a990919063ffffffff16565b600381905550610bb4610ba38a610b958b6104fb565b6121bf90919063ffffffff16565b6004546121a990919063ffffffff16565b60048190555080600001518160200151826040015183606001519550955095509550505093509350935093565b610be96121a1565b73ffffffffffffffffffffffffffffffffffffffff16610c07610f7a565b73ffffffffffffffffffffffffffffffffffffffff1614610c5d576040517f08c379a0000000000000000000000000000000000000000000000000000000008152600401610c5490612c43565b60405180910390fd5b610c6760006121d5565b565b6060600560008373ffffffffffffffffffffffffffffffffffffffff1673ffffffffffffffffffffffffffffffffffffffff168152602001908152602001600020805480602002602001604051908101604052809291908181526020016000905b82821015610d2e57838290600052602060002090600502016040518060a00160405290816000820154815260200160018201548152602001600282015481526020016003820154815260200160048201548152505081526020019060010190610cca565b505050509050919050565b6000806000905060005b600680549050811015610f6c5760005b6005600060068481548110610d91577f4e487b7100000000000000000000000000000000000000000000000000000000600052603260045260246000fd5b9060005260206000200160009054906101000a900473ffffffffffffffffffffffffffffffffffffffff1673ffffffffffffffffffffffffffffffffffffffff1673ffffffffffffffffffffffffffffffffffffffff16815260200190815260200160002080549050811015610f585760006005600060068581548110610e41577f4e487b7100000000000000000000000000000000000000000000000000000000600052603260045260246000fd5b9060005260206000200160009054906101000a900473ffffffffffffffffffffffffffffffffffffffff1673ffffffffffffffffffffffffffffffffffffffff1673ffffffffffffffffffffffffffffffffffffffff1681526020019081526020016000208281548110610ede577f4e487b7100000000000000000000000000000000000000000000000000000000600052603260045260246000fd5b90600052602060002090600502016040518060a0016040529081600082015481526020016001820154815260200160028201548152602001600382015481526020016004820154815250509050610f428160600151856121a990919063ffffffff16565b9350508080610f5090612f73565b915050610d53565b508080610f6490612f73565b915050610d43565b508091505090565b60035481565b60008060009054906101000a900473ffffffffffffffffffffffffffffffffffffffff16905090565b600080600080600080600560003373ffffffffffffffffffffffffffffffffffffffff1673ffffffffffffffffffffffffffffffffffffffff168152602001908152602001600020805490501161102f576040517f08c379a000000000000000000000000000000000000000000000000000000000815260040161102690612c23565b60405180910390fd5b6000600560003373ffffffffffffffffffffffffffffffffffffffff1673ffffffffffffffffffffffffffffffffffffffff16815260200190815260200160002087815481106110a8577f4e487b7100000000000000000000000000000000000000000000000000000000600052603260045260246000fd5b90600052602060002090600502016040518060a0016040529081600082015481526020016001820154815260200160028201548152602001600382015481526020016004820154815250509050600081600001511161113c576040517f08c379a000000000000000000000000000000000000000000000000000000000815260040161113390612ba3565b60405180910390fd5b600081600001519050600043611163846020015185604001516121a990919063ffffffff16565b11156111ad576111916064611183600854856121bf90919063ffffffff16565b61229990919063ffffffff16565b90506111a681836122af90919063ffffffff16565b91506111c7565b6111c48360600151836121a990919063ffffffff16565b91505b60008111156112bc576111e78360600151826121a990919063ffffffff16565b9050600160009054906101000a900473ffffffffffffffffffffffffffffffffffffffff1673ffffffffffffffffffffffffffffffffffffffff1663a9059cbb600260009054906101000a900473ffffffffffffffffffffffffffffffffffffffff16836040518363ffffffff1660e01b8152600401611268929190612adb565b602060405180830381600087803b15801561128257600080fd5b505af1158015611296573d6000803e3d6000fd5b505050506040513d601f19601f820116820180604052508101906112ba9190612483565b505b600160009054906101000a900473ffffffffffffffffffffffffffffffffffffffff1673ffffffffffffffffffffffffffffffffffffffff1663a9059cbb33846040518363ffffffff1660e01b8152600401611319929190612adb565b602060405180830381600087803b15801561133357600080fd5b505af1158015611347573d6000803e3d6000fd5b505050506040513d601f19601f8201168201806040525081019061136b9190612483565b506040518060a001604052806000815260200184602001518152602001846040015181526020016000815260200143815250600560003373ffffffffffffffffffffffffffffffffffffffff1673ffffffffffffffffffffffffffffffffffffffff1681526020019081526020016000208a81548110611414577f4e487b7100000000000000000000000000000000000000000000000000000000600052603260045260246000fd5b9060005260206000209060050201600082015181600001556020820151816001015560408201518160020155606082015181600301556080820151816004015590505061147083600001516003546122af90919063ffffffff16565b6003819055506114ad61149c846000015161148e86602001516104fb565b6121bf90919063ffffffff16565b6004546122af90919063ffffffff16565b6004819055506000836020015184604001516000439750975097509750975050505091939590929450565b600681815481106114e857600080fd5b906000526020600020016000915054906101000a900473ffffffffffffffffffffffffffffffffffffffff1681565b600080600160009054906101000a900473ffffffffffffffffffffffffffffffffffffffff1673ffffffffffffffffffffffffffffffffffffffff166370a08231600260009054906101000a900473ffffffffffffffffffffffffffffffffffffffff166040518263ffffffff1660e01b81526004016115979190612a89565b60206040518083038186803b1580156115af57600080fd5b505afa1580156115c3573d6000803e3d6000fd5b505050506040513d601f19601f820116820180604052508101906115e791906124d5565b905069021e19e0c9bab2400000811015611636576040517f08c379a000000000000000000000000000000000000000000000000000000000815260040161162d90612bc3565b60405180910390fd5b600160009054906101000a900473ffffffffffffffffffffffffffffffffffffffff1673ffffffffffffffffffffffffffffffffffffffff166323b872dd600260009054906101000a900473ffffffffffffffffffffffffffffffffffffffff1630846040518463ffffffff1660e01b81526004016116b793929190612aa4565b602060405180830381600087803b1580156116d157600080fd5b505af11580156116e5573d6000803e3d6000fd5b505050506040513d601f19601f820116820180604052508101906117099190612483565b5060005b600680549050811015611c0f5760005b600560006006848154811061175b577f4e487b7100000000000000000000000000000000000000000000000000000000600052603260045260246000fd5b9060005260206000200160009054906101000a900473ffffffffffffffffffffffffffffffffffffffff1673ffffffffffffffffffffffffffffffffffffffff1673ffffffffffffffffffffffffffffffffffffffff16815260200190815260200160002080549050811015611bfb576000600560006006858154811061180b577f4e487b7100000000000000000000000000000000000000000000000000000000600052603260045260246000fd5b9060005260206000200160009054906101000a900473ffffffffffffffffffffffffffffffffffffffff1673ffffffffffffffffffffffffffffffffffffffff1673ffffffffffffffffffffffffffffffffffffffff16815260200190815260200160002082815481106118a8577f4e487b7100000000000000000000000000000000000000000000000000000000600052603260045260246000fd5b90600052602060002090600502016040518060a0016040529081600082015481526020016001820154815260200160028201548152602001600382015481526020016004820154815250509050600081600001511115611be7576000611927826000015161191984602001516104fb565b6121bf90919063ffffffff16565b9050600061195260045461194488856121bf90919063ffffffff16565b61229990919063ffffffff16565b905061196b8184606001516121a990919063ffffffff16565b60056000600688815481106119a9577f4e487b7100000000000000000000000000000000000000000000000000000000600052603260045260246000fd5b9060005260206000200160009054906101000a900473ffffffffffffffffffffffffffffffffffffffff1673ffffffffffffffffffffffffffffffffffffffff1673ffffffffffffffffffffffffffffffffffffffff1681526020019081526020016000208581548110611a46577f4e487b7100000000000000000000000000000000000000000000000000000000600052603260045260246000fd5b9060005260206000209060050201600301819055507f619caafabdd75649b302ba8419e48cccf64f37f1983ac4727cfb38b57703ffc960068681548110611ab6577f4e487b7100000000000000000000000000000000000000000000000000000000600052603260045260246000fd5b9060005260206000200160009054906101000a900473ffffffffffffffffffffffffffffffffffffffff166005600060068981548110611b1f577f4e487b7100000000000000000000000000000000000000000000000000000000600052603260045260246000fd5b9060005260206000200160009054906101000a900473ffffffffffffffffffffffffffffffffffffffff1673ffffffffffffffffffffffffffffffffffffffff1673ffffffffffffffffffffffffffffffffffffffff1681526020019081526020016000208681548110611bbc577f4e487b7100000000000000000000000000000000000000000000000000000000600052603260045260246000fd5b906000526020600020906005020160030154604051611bdc929190612adb565b60405180910390a150505b508080611bf390612f73565b91505061171d565b508080611c0790612f73565b91505061170d565b507f4def474aca53bf221d07d9ab0f675b3f6d8d2494b8427271bcf43c018ef1eead81604051611c3f9190612c83565b60405180910390a1600191505090565b60078181548110611c5f57600080fd5b906000526020600020016000915090505481565b611c7b6121a1565b73ffffffffffffffffffffffffffffffffffffffff16611c99610f7a565b73ffffffffffffffffffffffffffffffffffffffff1614611cef576040517f08c379a0000000000000000000000000000000000000000000000000000000008152600401611ce690612c43565b60405180910390fd5b600073ffffffffffffffffffffffffffffffffffffffff168173ffffffffffffffffffffffffffffffffffffffff161415611d5f576040517f08c379a0000000000000000000000000000000000000000000000000000000008152600401611d5690612b83565b60405180910390fd5b611d68816121d5565b50565b60008060008060008611611db4576040517f08c379a0000000000000000000000000000000000000000000000000000000008152600401611dab90612c03565b60405180910390fd5b670de0b6b3a7640000861015611dff576040517f08c379a0000000000000000000000000000000000000000000000000000000008152600401611df690612b63565b60405180910390fd5b60008511611e42576040517f08c379a0000000000000000000000000000000000000000000000000000000008152600401611e3990612be3565b60405180910390fd5b6000805b600780549050811015611eb7578660078281548110611e8e577f4e487b7100000000000000000000000000000000000000000000000000000000600052603260045260246000fd5b90600052602060002001541415611ea457600191505b8080611eaf90612f73565b915050611e46565b506001151581151514611eff576040517f08c379a0000000000000000000000000000000000000000000000000000000008152600401611ef690612c63565b60405180910390fd5b600160009054906101000a900473ffffffffffffffffffffffffffffffffffffffff1673ffffffffffffffffffffffffffffffffffffffff166323b872dd33308a6040518463ffffffff1660e01b8152600401611f5e93929190612aa4565b602060405180830381600087803b158015611f7857600080fd5b505af1158015611f8c573d6000803e3d6000fd5b505050506040513d601f19601f82011682018060405250810190611fb09190612483565b506000600560003373ffffffffffffffffffffffffffffffffffffffff1673ffffffffffffffffffffffffffffffffffffffff168152602001908152602001600020805490501415612060576006339080600181540180825580915050600190039060005260206000200160009091909190916101000a81548173ffffffffffffffffffffffffffffffffffffffff021916908373ffffffffffffffffffffffffffffffffffffffff1602179055505b60006040518060a001604052808981526020018881526020014381526020016000815260200160008152509050600560003373ffffffffffffffffffffffffffffffffffffffff1673ffffffffffffffffffffffffffffffffffffffff1681526020019081526020016000208190806001815401808255809150506001900390600052602060002090600502016000909190919091506000820151816000015560208201518160010155604082015181600201556060820151816003015560808201518160040155505061213f886003546121a990919063ffffffff16565b600381905550612174612163896121558a6104fb565b6121bf90919063ffffffff16565b6004546121a990919063ffffffff16565b60048190555080600001518160200151826040015183606001519550955095509550505092959194509250565b600033905090565b600081836121b79190612e16565b905092915050565b600081836121cd9190612e9d565b905092915050565b60008060009054906101000a900473ffffffffffffffffffffffffffffffffffffffff169050816000806101000a81548173ffffffffffffffffffffffffffffffffffffffff021916908373ffffffffffffffffffffffffffffffffffffffff1602179055508173ffffffffffffffffffffffffffffffffffffffff168173ffffffffffffffffffffffffffffffffffffffff167f8be0079c531659141344cd1fd0a4f28419497f9722a3daafe3b4186f6b6457e060405160405180910390a35050565b600081836122a79190612e6c565b905092915050565b600081836122bd9190612ef7565b905092915050565b828054828255906000526020600020908101928215612301579160200282015b828111156123005782518255916020019190600101906122e5565b5b50905061230e9190612312565b5090565b5b8082111561232b576000816000905550600101612313565b5090565b600061234261233d84612d67565b612d36565b9050808382526020820190508285602086028201111561236157600080fd5b60005b85811015612391578161237788826123ef565b845260208401935060208301925050600181019050612364565b5050509392505050565b6000813590506123aa81613049565b92915050565b600082601f8301126123c157600080fd5b81356123d184826020860161232f565b91505092915050565b6000815190506123e981613060565b92915050565b6000813590506123fe81613077565b92915050565b60008151905061241381613077565b92915050565b60006020828403121561242b57600080fd5b60006124398482850161239b565b91505092915050565b60006020828403121561245457600080fd5b600082013567ffffffffffffffff81111561246e57600080fd5b61247a848285016123b0565b91505092915050565b60006020828403121561249557600080fd5b60006124a3848285016123da565b91505092915050565b6000602082840312156124be57600080fd5b60006124cc848285016123ef565b91505092915050565b6000602082840312156124e757600080fd5b60006124f584828501612404565b91505092915050565b6000806040838503121561251157600080fd5b600061251f858286016123ef565b9250506020612530858286016123ef565b9150509250929050565b60008060006060848603121561254f57600080fd5b600061255d868287016123ef565b935050602061256e868287016123ef565b925050604061257f8682870161239b565b9150509250925092565b60006125958383612a03565b60a08301905092915050565b60006125ad8383612a6b565b60208301905092915050565b6125c281612f2b565b82525050565b60006125d382612db3565b6125dd8185612de3565b93506125e883612d93565b8060005b838110156126195781516126008882612589565b975061260b83612dc9565b9250506001810190506125ec565b5085935050505092915050565b600061263182612dbe565b61263b8185612df4565b935061264683612da3565b8060005b8381101561267757815161265e88826125a1565b975061266983612dd6565b92505060018101905061264a565b5085935050505092915050565b61268d81612f3d565b82525050565b60006126a0602683612e05565b91507f54686520616d6f756e742073686f756c64206265206c6172676572207468616e60008301527f20312058485400000000000000000000000000000000000000000000000000006020830152604082019050919050565b6000612706602683612e05565b91507f4f776e61626c653a206e6577206f776e657220697320746865207a65726f206160008301527f64647265737300000000000000000000000000000000000000000000000000006020830152604082019050919050565b600061276c602e83612e05565b91507f53656c6563746564207374616b6520616d6f756e742073686f7564206265206d60008301527f6f7265207468616e207a65726f2e0000000000000000000000000000000000006020830152604082019050919050565b60006127d2603f83612e05565b91507f54686572652073686f756c64206265206174206c65617374203130303030205860008301527f485420696e2074686520706f7420666f7220646973747269627574696f6e2e006020830152604082019050919050565b6000612838602583612e05565b91507f426c6f636b20706572696f642073686f756c64206265206d6f7265207468616e60008301527f207a65726f0000000000000000000000000000000000000000000000000000006020830152604082019050919050565b600061289e602383612e05565b91507f54686520616d6f756e742073686f756c64206265206d6f7265207468616e207a60008301527f65726f00000000000000000000000000000000000000000000000000000000006020830152604082019050919050565b6000612904603b83612e05565b91507f54686572652073686f756c64206265206174206c65617374206f6e652065786960008301527f7374696e67207374616b6520746f2072656d6f76652066726f6d2e00000000006020830152604082019050919050565b600061296a602083612e05565b91507f4f776e61626c653a2063616c6c6572206973206e6f7420746865206f776e65726000830152602082019050919050565b60006129aa603583612e05565b91507f506572696f642073686f756c6420666f6c6c6f77206f6e65207468652070726560008301527f20736574207374616b696e6720706572696f64732e00000000000000000000006020830152604082019050919050565b60a082016000820151612a196000850182612a6b565b506020820151612a2c6020850182612a6b565b506040820151612a3f6040850182612a6b565b506060820151612a526060850182612a6b565b506080820151612a656080850182612a6b565b50505050565b612a7481612f69565b82525050565b612a8381612f69565b82525050565b6000602082019050612a9e60008301846125b9565b92915050565b6000606082019050612ab960008301866125b9565b612ac660208301856125b9565b612ad36040830184612a7a565b949350505050565b6000604082019050612af060008301856125b9565b612afd6020830184612a7a565b9392505050565b60006020820190508181036000830152612b1e81846125c8565b905092915050565b60006020820190508181036000830152612b408184612626565b905092915050565b6000602082019050612b5d6000830184612684565b92915050565b60006020820190508181036000830152612b7c81612693565b9050919050565b60006020820190508181036000830152612b9c816126f9565b9050919050565b60006020820190508181036000830152612bbc8161275f565b9050919050565b60006020820190508181036000830152612bdc816127c5565b9050919050565b60006020820190508181036000830152612bfc8161282b565b9050919050565b60006020820190508181036000830152612c1c81612891565b9050919050565b60006020820190508181036000830152612c3c816128f7565b9050919050565b60006020820190508181036000830152612c5c8161295d565b9050919050565b60006020820190508181036000830152612c7c8161299d565b9050919050565b6000602082019050612c986000830184612a7a565b92915050565b6000608082019050612cb36000830187612a7a565b612cc06020830186612a7a565b612ccd6040830185612a7a565b612cda6060830184612a7a565b95945050505050565b600060a082019050612cf86000830188612a7a565b612d056020830187612a7a565b612d126040830186612a7a565b612d1f6060830185612a7a565b612d2c6080830184612a7a565b9695505050505050565b6000604051905081810181811067ffffffffffffffff82111715612d5d57612d5c61301a565b5b8060405250919050565b600067ffffffffffffffff821115612d8257612d8161301a565b5b602082029050602081019050919050565b6000819050602082019050919050565b6000819050602082019050919050565b600081519050919050565b600081519050919050565b6000602082019050919050565b6000602082019050919050565b600082825260208201905092915050565b600082825260208201905092915050565b600082825260208201905092915050565b6000612e2182612f69565b9150612e2c83612f69565b9250827fffffffffffffffffffffffffffffffffffffffffffffffffffffffffffffffff03821115612e6157612e60612fbc565b5b828201905092915050565b6000612e7782612f69565b9150612e8283612f69565b925082612e9257612e91612feb565b5b828204905092915050565b6000612ea882612f69565b9150612eb383612f69565b9250817fffffffffffffffffffffffffffffffffffffffffffffffffffffffffffffffff0483118215151615612eec57612eeb612fbc565b5b828202905092915050565b6000612f0282612f69565b9150612f0d83612f69565b925082821015612f2057612f1f612fbc565b5b828203905092915050565b6000612f3682612f49565b9050919050565b60008115159050919050565b600073ffffffffffffffffffffffffffffffffffffffff82169050919050565b6000819050919050565b6000612f7e82612f69565b91507fffffffffffffffffffffffffffffffffffffffffffffffffffffffffffffffff821415612fb157612fb0612fbc565b5b600182019050919050565b7f4e487b7100000000000000000000000000000000000000000000000000000000600052601160045260246000fd5b7f4e487b7100000000000000000000000000000000000000000000000000000000600052601260045260246000fd5b7f4e487b7100000000000000000000000000000000000000000000000000000000600052604160045260246000fd5b61305281612f2b565b811461305d57600080fd5b50565b61306981612f3d565b811461307457600080fd5b50565b61308081612f69565b811461308b57600080fd5b5056fea2646970667358221220f81019c5b10df4833d7d64689fff938df5cdcf157ff48c0782c7d0aeb55e6a0264736f6c63430008000033",
	"immutableReferences": {},
	"source": "pragma solidity ^0.8.0;\n\nimport \"./Token.sol\";\nimport \"@openzeppelin/contracts/utils/math/SafeMath.sol\";\nimport \"@openzeppelin/contracts/access/Ownable.sol\";\n// import \"https://github.com/OpenZeppelin/openzeppelin-contracts/contracts/math/SafeMath.sol\";\n\ncontract XHT is Ownable {\n\n    using SafeMath for uint256;\n\n    Token token;\n\n    address public pot = 0x0000000000000000000000000000000000000000; // main pot address for redistribution (admin can change this)\n    uint256 public totalStake = 0;\n    uint256 public totalStakeWeight = 0;\n\n    struct Stake {\n        uint256 amount;\n        uint256 period;\n        uint256 startBlock;\n        uint256 reward;\n        uint256 closeBlock;\n    }\n    mapping (address => Stake[]) private stakes;\n    address[] public addressIndices;\n    uint256[] public periods = [1, 6500, 195000, 2372500];\n    uint256 public penalty = 10;\n\n    event Reward(address _address, uint256 _reward);\n    event Distribute(uint256 _amount);\n\n    constructor(Token _token) {\n        token = _token;\n    }\n\n    function getStake(address _staker) public view returns (Stake[] memory) {\n        return (stakes[_staker]);\n    }\n\n    function getStakeWeight(uint256 _period) public view returns (uint256) {\n        uint256 weight = 0;\n        for (uint i=0; i<periods.length; i++) {\n            if (periods[i] == _period) {\n                // period index plus 1 is the weight of the period. The periods array order is important\n                weight = i + 1;\n            }\n        }\n        return weight;\n    }\n\n    function getTotalReward() public view returns (uint256) {\n        uint256 reward = 0;\n        \n        for (uint i=0; i<addressIndices.length; i++) {\n            for (uint j=0; j<stakes[addressIndices[i]].length; j++) {\n                Stake memory s = stakes[addressIndices[i]][j];\n                reward = reward.add(s.reward);\n            }\n        }\n        return reward;\n    }\n\n    function addStake(uint256 _amount, uint256 _period) public returns (uint256, uint256, uint256, uint256) {\n        require(_amount > 0 , \"The amount should be more than zero\");\n        require(_amount >= 10**18 , \"The amount should be larger than 1 XHT\");\n        require(_period > 0 , \"Block period should be more than zero\");\n        bool check = false;\n        for (uint i=0; i<periods.length; i++) {\n            if (periods[i] == _period) {\n                check = true;\n            }\n        }\n        require(check == true, \"Period should follow one the pre set staking periods.\");     \n\n        token.transferFrom(msg.sender, address(this), _amount);\n\n        if (stakes[msg.sender].length == 0) {\n            // first time staking with this address\n            addressIndices.push(msg.sender);\n        }\n\n        Stake memory s = Stake(_amount, _period, block.number, 0, 0);\n        stakes[msg.sender].push(s);\n    \n        totalStake = totalStake.add(_amount);\n        totalStakeWeight = totalStakeWeight.add(getStakeWeight(_period).mul(_amount));\n\n        return (s.amount, s.period, s.startBlock, s.reward);\n    }\n\n    function removeStake(uint256 _index) public returns (uint256, uint256, uint256, uint256, uint256) {\n\n        require(stakes[msg.sender].length > 0, \"There should be at least one existing stake to remove from.\");\n\n        Stake memory s = stakes[msg.sender][_index];\n        require(s.amount > 0 , \"Selected stake amount shoud be more than zero.\");\n\n        uint256 receivedAmount = s.amount;\n        uint256 penaltyAmount = 0;\n        if (s.startBlock.add(s.period) > block.number) {\n            // add 10% penalty for early removal and no allocation of rewards\n            penaltyAmount = receivedAmount.mul(penalty).div(100);\n            receivedAmount = receivedAmount.sub(penaltyAmount);\n        } else {\n            receivedAmount = receivedAmount.add(s.reward);\n        }\n\n        if (penaltyAmount > 0) {\n            // send the deducted penalty and reward back to the pot for redistribution\n            penaltyAmount = penaltyAmount.add(s.reward);\n            token.transfer(pot, penaltyAmount);\n        }\n\n        // send the unstaked amount to the user\n        token.transfer(msg.sender, receivedAmount);\n\n        // reset the stake\n        stakes[msg.sender][_index] = Stake(0, s.period, s.startBlock, 0, block.number);\n\n        totalStake = totalStake.sub(s.amount);\n        totalStakeWeight = totalStakeWeight.sub(getStakeWeight(s.period).mul(s.amount));\n\n        return (0, s.period, s.startBlock, 0, block.number);\n    }\n\n    function distribute() public returns (bool) {\n        uint256 potBalance = token.balanceOf(pot);\n        require(potBalance >= 10**22, \"There should be at least 10000 XHT in the pot for distribution.\");\n\n        token.transferFrom(pot, address(this), potBalance);\n\n        for (uint i=0; i<addressIndices.length; i++) {\n            for (uint j=0; j<stakes[addressIndices[i]].length; j++) {\n                Stake memory s = stakes[addressIndices[i]][j];\n                if (s.amount > 0) {\n                    uint256 weightedAmount = getStakeWeight(s.period).mul(s.amount); \n                    // uint256 weightedAmount = getStakeWeight(s.period).mul(s.amount).div(totalWeight);\n                    // uint256 weightedTotal = totalStake.mul(totalWeight);\n                    \n                    uint256 reward = weightedAmount.mul(potBalance).div(totalStakeWeight);\n\n                    stakes[addressIndices[i]][j].reward = s.reward.add(reward);\n                    emit Reward(addressIndices[i], stakes[addressIndices[i]][j].reward);\n                }\n            }\n        }\n        emit Distribute(potBalance);\n        return true;\n    }\n\n    function setPotAddress(address _address) public onlyOwner returns (address) {\n        pot = _address;\n        return pot;\n    }\n\n    function setPenalty(uint256 _penalty) public onlyOwner returns (uint256) {\n        penalty = _penalty;\n        return penalty;\n    }\n\n    function setPeriods(uint256[] memory _periods) public onlyOwner returns (uint256[] memory) {\n        periods = _periods;\n        return periods;\n    }\n\n    function setStake(uint256 _amount, uint256 _period, address _address) public onlyOwner returns (uint256, uint256, uint256, uint256) {\n        require(_amount > 0 , \"The amount should be more than zero\");\n        require(_amount >= 10**18 , \"The amount should be larger than 1 XHT\");\n        require(_period > 0 , \"Block period should be more than zero\");\n        bool check = false;\n        for (uint i=0; i<periods.length; i++) {\n            if (periods[i] == _period) {\n                check = true;\n            }\n        }\n        require(check == true, \"Period should follow one the pre set staking periods.\");     \n\n        token.transferFrom(msg.sender, address(this), _amount);\n\n        if (stakes[_address].length == 0) {\n            // first time staking with this address\n            addressIndices.push(_address);\n        }\n\n        Stake memory s = Stake(_amount, _period, block.number, 0, 0);\n        stakes[_address].push(s);\n    \n        totalStake = totalStake.add(_amount);\n        totalStakeWeight = totalStakeWeight.add(getStakeWeight(_period).mul(_amount));\n\n        return (s.amount, s.period, s.startBlock, s.reward);\n    }\n}",
	"sourcePath": "/Users/abeikverdi/Documents/projects/sandbox/stake/src/contracts/XHT.sol",
	"compiler": {
		"name": "solc",
		"version": "0.8.0+commit.c7dfd78e.Emscripten.clang"
	},
	"schemaVersion": "3.4.1",
	"updatedAt": "2021-08-14T14:02:54.437Z",
	"devdoc": {
		"kind": "dev",
		"methods": {
			"owner()": {
				"details": "Returns the address of the current owner."
			},
			"renounceOwnership()": {
				"details": "Leaves the contract without owner. It will not be possible to call `onlyOwner` functions anymore. Can only be called by the current owner. NOTE: Renouncing ownership will leave the contract without an owner, thereby removing any functionality that is only available to the owner."
			},
			"transferOwnership(address)": {
				"details": "Transfers ownership of the contract to a new account (`newOwner`). Can only be called by the current owner."
			}
		},
		"version": 1
	},
	"userdoc": {
		"kind": "user",
		"methods": {},
		"version": 1
	}
}