{
	"contractName": "XHT",
	"abi": [
		{
			"inputs": [
				{
					"internalType": "contract Token",
					"name": "_token",
					"type": "address"
				}
			],
			"stateMutability": "nonpayable",
			"type": "constructor"
		},
		{
			"anonymous": false,
			"inputs": [
				{
					"indexed": false,
					"internalType": "uint256",
					"name": "_amount",
					"type": "uint256"
				}
			],
			"name": "DistributeEvent",
			"type": "event"
		},
		{
			"anonymous": false,
			"inputs": [
				{
					"indexed": true,
					"internalType": "address",
					"name": "previousOwner",
					"type": "address"
				},
				{
					"indexed": true,
					"internalType": "address",
					"name": "newOwner",
					"type": "address"
				}
			],
			"name": "OwnershipTransferred",
			"type": "event"
		},
		{
			"anonymous": false,
			"inputs": [
				{
					"indexed": false,
					"internalType": "address",
					"name": "_address",
					"type": "address"
				},
				{
					"indexed": false,
					"internalType": "uint256",
					"name": "_reward",
					"type": "uint256"
				}
			],
			"name": "RewardEvent",
			"type": "event"
		},
		{
			"anonymous": false,
			"inputs": [
				{
					"indexed": false,
					"internalType": "address",
					"name": "_address",
					"type": "address"
				},
				{
					"indexed": false,
					"internalType": "uint256",
					"name": "_amount",
					"type": "uint256"
				}
			],
			"name": "StakeEvent",
			"type": "event"
		},
		{
			"anonymous": false,
			"inputs": [
				{
					"indexed": false,
					"internalType": "address",
					"name": "_address",
					"type": "address"
				},
				{
					"indexed": false,
					"internalType": "uint256",
					"name": "_amount",
					"type": "uint256"
				}
			],
			"name": "UnstakeEvent",
			"type": "event"
		},
		{
			"inputs": [
				{
					"internalType": "uint256",
					"name": "",
					"type": "uint256"
				}
			],
			"name": "addressIndices",
			"outputs": [
				{
					"internalType": "address",
					"name": "",
					"type": "address"
				}
			],
			"stateMutability": "view",
			"type": "function",
			"constant": true
		},
		{
			"inputs": [],
			"name": "deployedBlock",
			"outputs": [
				{
					"internalType": "uint256",
					"name": "",
					"type": "uint256"
				}
			],
			"stateMutability": "view",
			"type": "function",
			"constant": true
		},
		{
			"inputs": [],
			"name": "owner",
			"outputs": [
				{
					"internalType": "address",
					"name": "",
					"type": "address"
				}
			],
			"stateMutability": "view",
			"type": "function",
			"constant": true
		},
		{
			"inputs": [],
			"name": "penalty",
			"outputs": [
				{
					"internalType": "uint256",
					"name": "",
					"type": "uint256"
				}
			],
			"stateMutability": "view",
			"type": "function",
			"constant": true
		},
		{
			"inputs": [
				{
					"internalType": "uint256",
					"name": "",
					"type": "uint256"
				}
			],
			"name": "periods",
			"outputs": [
				{
					"internalType": "uint256",
					"name": "",
					"type": "uint256"
				}
			],
			"stateMutability": "view",
			"type": "function",
			"constant": true
		},
		{
			"inputs": [],
			"name": "pot",
			"outputs": [
				{
					"internalType": "address",
					"name": "",
					"type": "address"
				}
			],
			"stateMutability": "view",
			"type": "function",
			"constant": true
		},
		{
			"inputs": [],
			"name": "renounceOwnership",
			"outputs": [],
			"stateMutability": "nonpayable",
			"type": "function"
		},
		{
			"inputs": [],
			"name": "totalStake",
			"outputs": [
				{
					"internalType": "uint256",
					"name": "",
					"type": "uint256"
				}
			],
			"stateMutability": "view",
			"type": "function",
			"constant": true
		},
		{
			"inputs": [],
			"name": "totalStakeWeight",
			"outputs": [
				{
					"internalType": "uint256",
					"name": "",
					"type": "uint256"
				}
			],
			"stateMutability": "view",
			"type": "function",
			"constant": true
		},
		{
			"inputs": [
				{
					"internalType": "address",
					"name": "newOwner",
					"type": "address"
				}
			],
			"name": "transferOwnership",
			"outputs": [],
			"stateMutability": "nonpayable",
			"type": "function"
		},
		{
			"inputs": [
				{
					"internalType": "address",
					"name": "_staker",
					"type": "address"
				}
			],
			"name": "getStake",
			"outputs": [
				{
					"components": [
						{
							"internalType": "uint256",
							"name": "amount",
							"type": "uint256"
						},
						{
							"internalType": "uint256",
							"name": "period",
							"type": "uint256"
						},
						{
							"internalType": "uint256",
							"name": "startBlock",
							"type": "uint256"
						},
						{
							"internalType": "uint256",
							"name": "reward",
							"type": "uint256"
						},
						{
							"internalType": "uint256",
							"name": "closeBlock",
							"type": "uint256"
						}
					],
					"internalType": "struct XHT.Stake[]",
					"name": "",
					"type": "tuple[]"
				}
			],
			"stateMutability": "view",
			"type": "function",
			"constant": true
		},
		{
			"inputs": [
				{
					"internalType": "uint256",
					"name": "_period",
					"type": "uint256"
				}
			],
			"name": "getStakeWeight",
			"outputs": [
				{
					"internalType": "uint256",
					"name": "",
					"type": "uint256"
				}
			],
			"stateMutability": "view",
			"type": "function",
			"constant": true
		},
		{
			"inputs": [],
			"name": "getTotalReward",
			"outputs": [
				{
					"internalType": "uint256",
					"name": "",
					"type": "uint256"
				}
			],
			"stateMutability": "view",
			"type": "function",
			"constant": true
		},
		{
			"inputs": [
				{
					"internalType": "uint256",
					"name": "_amount",
					"type": "uint256"
				},
				{
					"internalType": "uint256",
					"name": "_period",
					"type": "uint256"
				}
			],
			"name": "addStake",
			"outputs": [
				{
					"internalType": "uint256",
					"name": "",
					"type": "uint256"
				},
				{
					"internalType": "uint256",
					"name": "",
					"type": "uint256"
				},
				{
					"internalType": "uint256",
					"name": "",
					"type": "uint256"
				},
				{
					"internalType": "uint256",
					"name": "",
					"type": "uint256"
				}
			],
			"stateMutability": "nonpayable",
			"type": "function"
		},
		{
			"inputs": [
				{
					"internalType": "uint256",
					"name": "_index",
					"type": "uint256"
				}
			],
			"name": "removeStake",
			"outputs": [
				{
					"internalType": "uint256",
					"name": "",
					"type": "uint256"
				},
				{
					"internalType": "uint256",
					"name": "",
					"type": "uint256"
				},
				{
					"internalType": "uint256",
					"name": "",
					"type": "uint256"
				},
				{
					"internalType": "uint256",
					"name": "",
					"type": "uint256"
				},
				{
					"internalType": "uint256",
					"name": "",
					"type": "uint256"
				}
			],
			"stateMutability": "nonpayable",
			"type": "function"
		},
		{
			"inputs": [],
			"name": "distribute",
			"outputs": [
				{
					"internalType": "bool",
					"name": "",
					"type": "bool"
				}
			],
			"stateMutability": "nonpayable",
			"type": "function"
		},
		{
			"inputs": [
				{
					"internalType": "address",
					"name": "_address",
					"type": "address"
				}
			],
			"name": "setPotAddress",
			"outputs": [
				{
					"internalType": "address",
					"name": "",
					"type": "address"
				}
			],
			"stateMutability": "nonpayable",
			"type": "function"
		},
		{
			"inputs": [
				{
					"internalType": "uint256",
					"name": "_penalty",
					"type": "uint256"
				}
			],
			"name": "setPenalty",
			"outputs": [
				{
					"internalType": "uint256",
					"name": "",
					"type": "uint256"
				}
			],
			"stateMutability": "nonpayable",
			"type": "function"
		},
		{
			"inputs": [
				{
					"internalType": "uint256[]",
					"name": "_periods",
					"type": "uint256[]"
				}
			],
			"name": "setPeriods",
			"outputs": [
				{
					"internalType": "uint256[]",
					"name": "",
					"type": "uint256[]"
				}
			],
			"stateMutability": "nonpayable",
			"type": "function"
		},
		{
			"inputs": [
				{
					"internalType": "uint256",
					"name": "_amount",
					"type": "uint256"
				},
				{
					"internalType": "uint256",
					"name": "_period",
					"type": "uint256"
				},
				{
					"internalType": "address",
					"name": "_address",
					"type": "address"
				},
				{
					"internalType": "uint256",
					"name": "_startBlock",
					"type": "uint256"
				},
				{
					"internalType": "uint256",
					"name": "_reward",
					"type": "uint256"
				}
			],
			"name": "setStake",
			"outputs": [
				{
					"internalType": "uint256",
					"name": "",
					"type": "uint256"
				},
				{
					"internalType": "uint256",
					"name": "",
					"type": "uint256"
				},
				{
					"internalType": "uint256",
					"name": "",
					"type": "uint256"
				},
				{
					"internalType": "uint256",
					"name": "",
					"type": "uint256"
				}
			],
			"stateMutability": "nonpayable",
			"type": "function"
		}
	],
	"bytecode": "0x60806040526000600260006101000a81548173ffffffffffffffffffffffffffffffffffffffff021916908373ffffffffffffffffffffffffffffffffffffffff160217905550600060035560006004556040518060800160405280600162ffffff16815260200161196462ffffff1681526020016202f9b862ffffff1681526020016224339462ffffff168152506007906004620000a092919062000211565b50600a60085543600955348015620000b757600080fd5b5060405162003917380380620039178339818101604052810190620000dd9190620002a0565b620000fd620000f16200014560201b60201c565b6200014d60201b60201c565b80600160006101000a81548173ffffffffffffffffffffffffffffffffffffffff021916908373ffffffffffffffffffffffffffffffffffffffff160217905550506200032e565b600033905090565b60008060009054906101000a900473ffffffffffffffffffffffffffffffffffffffff169050816000806101000a81548173ffffffffffffffffffffffffffffffffffffffff021916908373ffffffffffffffffffffffffffffffffffffffff1602179055508173ffffffffffffffffffffffffffffffffffffffff168173ffffffffffffffffffffffffffffffffffffffff167f8be0079c531659141344cd1fd0a4f28419497f9722a3daafe3b4186f6b6457e060405160405180910390a35050565b82805482825590600052602060002090810192821562000257579160200282015b8281111562000256578251829062ffffff1690559160200191906001019062000232565b5b5090506200026691906200026a565b5090565b5b80821115620002855760008160009055506001016200026b565b5090565b6000815190506200029a8162000314565b92915050565b600060208284031215620002b357600080fd5b6000620002c38482850162000289565b91505092915050565b6000620002d982620002f4565b9050919050565b6000620002ed82620002cc565b9050919050565b600073ffffffffffffffffffffffffffffffffffffffff82169050919050565b6200031f81620002e0565b81146200032b57600080fd5b50565b6135d9806200033e6000396000f3fe608060405234801561001057600080fd5b506004361061012c5760003560e01c80637d1fcbfa116100ad578063a7df8c5711610071578063a7df8c5714610364578063e4fc6b6d14610394578063ea4a1104146103b2578063f2fde38b146103e2578063fd2b5202146103fe5761012c565b80637d1fcbfa146102b857806382ea7bfe146102d65780638b0e9f3f146102f45780638da5cb5b14610312578063939624ab146103305761012c565b80634f663de2116100f45780634f663de2146101fd57806351ba5d5714610230578063626e0f8314610260578063715018a61461027e5780637a766460146102885761012c565b80630edd2ffc1461013157806320553b321461014f578063291dd4b31461017f5780634a4b674a146101af5780634ba2363a146101df575b600080fd5b610139610431565b6040516101469190613198565b60405180910390f35b610169600480360381019061016491906125bf565b610437565b6040516101769190612f7b565b60405180910390f35b61019960048036038101906101949190612629565b610524565b6040516101a69190613198565b60405180910390f35b6101c960048036038101906101c49190612629565b6105b4565b6040516101d69190613198565b60405180910390f35b6101e76106cb565b6040516101f49190612ede565b60405180910390f35b610217600480360381019061021291906126b7565b6106f1565b60405161022794939291906131b3565b60405180910390f35b61024a60048036038101906102459190612596565b610bf7565b6040516102579190612ede565b60405180910390f35b610268610ce0565b6040516102759190613198565b60405180910390f35b610286610ce6565b005b6102a2600480360381019061029d9190612596565b610d6e565b6040516102af9190612f59565b60405180910390f35b6102c0610e3e565b6040516102cd9190613198565b60405180910390f35b6102de611079565b6040516102eb9190613198565b60405180910390f35b6102fc61107f565b6040516103099190613198565b60405180910390f35b61031a611085565b6040516103279190612ede565b60405180910390f35b61034a60048036038101906103459190612629565b6110ae565b60405161035b9594939291906131f8565b60405180910390f35b61037e60048036038101906103799190612629565b61161c565b60405161038b9190612ede565b60405180910390f35b61039c61165b565b6040516103a99190612f9d565b60405180910390f35b6103cc60048036038101906103c79190612629565b611d93565b6040516103d99190613198565b60405180910390f35b6103fc60048036038101906103f79190612596565b611db7565b005b6104186004803603810190610413919061267b565b611eaf565b60405161042894939291906131b3565b60405180910390f35b60085481565b606061044161231e565b73ffffffffffffffffffffffffffffffffffffffff1661045f611085565b73ffffffffffffffffffffffffffffffffffffffff16146104b5576040517f08c379a00000000000000000000000000000000000000000000000000000000081526004016104ac90613118565b60405180910390fd5b81600790805190602001906104cb929190612442565b50600780548060200260200160405190810160405280929190818152602001828054801561051857602002820191906000526020600020905b815481526020019060010190808311610504575b50505050509050919050565b6000806000905060005b6007805490508110156105aa578360078281548110610576577f4e487b7100000000000000000000000000000000000000000000000000000000600052603260045260246000fd5b9060005260206000200154141561059757600181610594919061332b565b91505b80806105a290613488565b91505061052e565b5080915050919050565b60006105be61231e565b73ffffffffffffffffffffffffffffffffffffffff166105dc611085565b73ffffffffffffffffffffffffffffffffffffffff1614610632576040517f08c379a000000000000000000000000000000000000000000000000000000000815260040161062990613118565b60405180910390fd5b6064821115610676576040517f08c379a000000000000000000000000000000000000000000000000000000000815260040161066d90613018565b60405180910390fd5b60008210156106ba576040517f08c379a00000000000000000000000000000000000000000000000000000000081526004016106b1906130d8565b60405180910390fd5b816008819055506008549050919050565b600260009054906101000a900473ffffffffffffffffffffffffffffffffffffffff1681565b6000806000806106ff61231e565b73ffffffffffffffffffffffffffffffffffffffff1661071d611085565b73ffffffffffffffffffffffffffffffffffffffff1614610773576040517f08c379a000000000000000000000000000000000000000000000000000000000815260040161076a90613118565b60405180910390fd5b600089116107b6576040517f08c379a00000000000000000000000000000000000000000000000000000000081526004016107ad90613138565b60405180910390fd5b670de0b6b3a7640000891015610801576040517f08c379a00000000000000000000000000000000000000000000000000000000081526004016107f890612fd8565b60405180910390fd5b60008811610844576040517f08c379a000000000000000000000000000000000000000000000000000000000815260040161083b90613178565b60405180910390fd5b6202f9b8600954610855919061332b565b4310610896576040517f08c379a000000000000000000000000000000000000000000000000000000000815260040161088d90613078565b60405180910390fd5b6000805b60078054905081101561090b5789600782815481106108e2577f4e487b7100000000000000000000000000000000000000000000000000000000600052603260045260246000fd5b906000526020600020015414156108f857600191505b808061090390613488565b91505061089a565b506001151581151514610953576040517f08c379a000000000000000000000000000000000000000000000000000000000815260040161094a90613158565b60405180910390fd5b600160009054906101000a900473ffffffffffffffffffffffffffffffffffffffff1673ffffffffffffffffffffffffffffffffffffffff166323b872dd33308d6040518463ffffffff1660e01b81526004016109b293929190612ef9565b602060405180830381600087803b1580156109cc57600080fd5b505af11580156109e0573d6000803e3d6000fd5b505050506040513d601f19601f82011682018060405250810190610a049190612600565b506000600560008a73ffffffffffffffffffffffffffffffffffffffff1673ffffffffffffffffffffffffffffffffffffffff168152602001908152602001600020805490501415610ab4576006889080600181540180825580915050600190039060005260206000200160009091909190916101000a81548173ffffffffffffffffffffffffffffffffffffffff021916908373ffffffffffffffffffffffffffffffffffffffff1602179055505b60006040518060a001604052808c81526020018b815260200189815260200188815260200160008152509050600560008a73ffffffffffffffffffffffffffffffffffffffff1673ffffffffffffffffffffffffffffffffffffffff16815260200190815260200160002081908060018154018082558091505060019003906000526020600020906005020160009091909190915060008201518160000155602082015181600101556040820151816002015560608201518160030155608082015181600401555050610b928b60035461232690919063ffffffff16565b600381905550610bc7610bb68c610ba88d610524565b61233c90919063ffffffff16565b60045461232690919063ffffffff16565b60048190555080600001518160200151826040015183606001519550955095509550505095509550955095915050565b6000610c0161231e565b73ffffffffffffffffffffffffffffffffffffffff16610c1f611085565b73ffffffffffffffffffffffffffffffffffffffff1614610c75576040517f08c379a0000000000000000000000000000000000000000000000000000000008152600401610c6c90613118565b60405180910390fd5b81600260006101000a81548173ffffffffffffffffffffffffffffffffffffffff021916908373ffffffffffffffffffffffffffffffffffffffff160217905550600260009054906101000a900473ffffffffffffffffffffffffffffffffffffffff169050919050565b60045481565b610cee61231e565b73ffffffffffffffffffffffffffffffffffffffff16610d0c611085565b73ffffffffffffffffffffffffffffffffffffffff1614610d62576040517f08c379a0000000000000000000000000000000000000000000000000000000008152600401610d5990613118565b60405180910390fd5b610d6c6000612352565b565b6060600560008373ffffffffffffffffffffffffffffffffffffffff1673ffffffffffffffffffffffffffffffffffffffff168152602001908152602001600020805480602002602001604051908101604052809291908181526020016000905b82821015610e3357838290600052602060002090600502016040518060a00160405290816000820154815260200160018201548152602001600282015481526020016003820154815260200160048201548152505081526020019060010190610dcf565b505050509050919050565b6000806000905060005b6006805490508110156110715760005b6005600060068481548110610e96577f4e487b7100000000000000000000000000000000000000000000000000000000600052603260045260246000fd5b9060005260206000200160009054906101000a900473ffffffffffffffffffffffffffffffffffffffff1673ffffffffffffffffffffffffffffffffffffffff1673ffffffffffffffffffffffffffffffffffffffff1681526020019081526020016000208054905081101561105d5760006005600060068581548110610f46577f4e487b7100000000000000000000000000000000000000000000000000000000600052603260045260246000fd5b9060005260206000200160009054906101000a900473ffffffffffffffffffffffffffffffffffffffff1673ffffffffffffffffffffffffffffffffffffffff1673ffffffffffffffffffffffffffffffffffffffff1681526020019081526020016000208281548110610fe3577f4e487b7100000000000000000000000000000000000000000000000000000000600052603260045260246000fd5b90600052602060002090600502016040518060a001604052908160008201548152602001600182015481526020016002820154815260200160038201548152602001600482015481525050905061104781606001518561232690919063ffffffff16565b935050808061105590613488565b915050610e58565b50808061106990613488565b915050610e48565b508091505090565b60095481565b60035481565b60008060009054906101000a900473ffffffffffffffffffffffffffffffffffffffff16905090565b600080600080600080600560003373ffffffffffffffffffffffffffffffffffffffff1673ffffffffffffffffffffffffffffffffffffffff168152602001908152602001600020805490501161113a576040517f08c379a0000000000000000000000000000000000000000000000000000000008152600401611131906130f8565b60405180910390fd5b6000600560003373ffffffffffffffffffffffffffffffffffffffff1673ffffffffffffffffffffffffffffffffffffffff16815260200190815260200160002087815481106111b3577f4e487b7100000000000000000000000000000000000000000000000000000000600052603260045260246000fd5b90600052602060002090600502016040518060a00160405290816000820154815260200160018201548152602001600282015481526020016003820154815260200160048201548152505090506000816000015111611247576040517f08c379a000000000000000000000000000000000000000000000000000000000815260040161123e90613038565b60405180910390fd5b60008160000151905060004361126e8460200151856040015161232690919063ffffffff16565b11156112b85761129c606461128e6008548561233c90919063ffffffff16565b61241690919063ffffffff16565b90506112b1818361242c90919063ffffffff16565b91506112d2565b6112cf83606001518361232690919063ffffffff16565b91505b60008111156113c7576112f283606001518261232690919063ffffffff16565b9050600160009054906101000a900473ffffffffffffffffffffffffffffffffffffffff1673ffffffffffffffffffffffffffffffffffffffff1663a9059cbb600260009054906101000a900473ffffffffffffffffffffffffffffffffffffffff16836040518363ffffffff1660e01b8152600401611373929190612f30565b602060405180830381600087803b15801561138d57600080fd5b505af11580156113a1573d6000803e3d6000fd5b505050506040513d601f19601f820116820180604052508101906113c59190612600565b505b600160009054906101000a900473ffffffffffffffffffffffffffffffffffffffff1673ffffffffffffffffffffffffffffffffffffffff1663a9059cbb33846040518363ffffffff1660e01b8152600401611424929190612f30565b602060405180830381600087803b15801561143e57600080fd5b505af1158015611452573d6000803e3d6000fd5b505050506040513d601f19601f820116820180604052508101906114769190612600565b506040518060a001604052806000815260200184602001518152602001846040015181526020016000815260200143815250600560003373ffffffffffffffffffffffffffffffffffffffff1673ffffffffffffffffffffffffffffffffffffffff1681526020019081526020016000208a8154811061151f577f4e487b7100000000000000000000000000000000000000000000000000000000600052603260045260246000fd5b9060005260206000209060050201600082015181600001556020820151816001015560408201518160020155606082015181600301556080820151816004015590505061157b836000015160035461242c90919063ffffffff16565b6003819055506115b86115a784600001516115998660200151610524565b61233c90919063ffffffff16565b60045461242c90919063ffffffff16565b6004819055507ff45fdc8b170b360d913177d3b852542edf6a0bcbb65f3682769f72e0bd17332633836040516115ef929190612f30565b60405180910390a16000836020015184604001516000439750975097509750975050505091939590929450565b6006818154811061162c57600080fd5b906000526020600020016000915054906101000a900473ffffffffffffffffffffffffffffffffffffffff1681565b600080600160009054906101000a900473ffffffffffffffffffffffffffffffffffffffff1673ffffffffffffffffffffffffffffffffffffffff166370a08231600260009054906101000a900473ffffffffffffffffffffffffffffffffffffffff166040518263ffffffff1660e01b81526004016116db9190612ede565b60206040518083038186803b1580156116f357600080fd5b505afa158015611707573d6000803e3d6000fd5b505050506040513d601f19601f8201168201806040525081019061172b9190612652565b905069021e19e0c9bab240000081101561177a576040517f08c379a000000000000000000000000000000000000000000000000000000000815260040161177190613058565b60405180910390fd5b600160009054906101000a900473ffffffffffffffffffffffffffffffffffffffff1673ffffffffffffffffffffffffffffffffffffffff166323b872dd600260009054906101000a900473ffffffffffffffffffffffffffffffffffffffff1630846040518463ffffffff1660e01b81526004016117fb93929190612ef9565b602060405180830381600087803b15801561181557600080fd5b505af1158015611829573d6000803e3d6000fd5b505050506040513d601f19601f8201168201806040525081019061184d9190612600565b5060005b600680549050811015611d535760005b600560006006848154811061189f577f4e487b7100000000000000000000000000000000000000000000000000000000600052603260045260246000fd5b9060005260206000200160009054906101000a900473ffffffffffffffffffffffffffffffffffffffff1673ffffffffffffffffffffffffffffffffffffffff1673ffffffffffffffffffffffffffffffffffffffff16815260200190815260200160002080549050811015611d3f576000600560006006858154811061194f577f4e487b7100000000000000000000000000000000000000000000000000000000600052603260045260246000fd5b9060005260206000200160009054906101000a900473ffffffffffffffffffffffffffffffffffffffff1673ffffffffffffffffffffffffffffffffffffffff1673ffffffffffffffffffffffffffffffffffffffff16815260200190815260200160002082815481106119ec577f4e487b7100000000000000000000000000000000000000000000000000000000600052603260045260246000fd5b90600052602060002090600502016040518060a0016040529081600082015481526020016001820154815260200160028201548152602001600382015481526020016004820154815250509050600081600001511115611d2b576000611a6b8260000151611a5d8460200151610524565b61233c90919063ffffffff16565b90506000611a96600454611a88888561233c90919063ffffffff16565b61241690919063ffffffff16565b9050611aaf81846060015161232690919063ffffffff16565b6005600060068881548110611aed577f4e487b7100000000000000000000000000000000000000000000000000000000600052603260045260246000fd5b9060005260206000200160009054906101000a900473ffffffffffffffffffffffffffffffffffffffff1673ffffffffffffffffffffffffffffffffffffffff1673ffffffffffffffffffffffffffffffffffffffff1681526020019081526020016000208581548110611b8a577f4e487b7100000000000000000000000000000000000000000000000000000000600052603260045260246000fd5b9060005260206000209060050201600301819055507f8abffc339e48a14cb9eaf2af684596b235950fa6bf6e689040e6d27ab4cc816c60068681548110611bfa577f4e487b7100000000000000000000000000000000000000000000000000000000600052603260045260246000fd5b9060005260206000200160009054906101000a900473ffffffffffffffffffffffffffffffffffffffff166005600060068981548110611c63577f4e487b7100000000000000000000000000000000000000000000000000000000600052603260045260246000fd5b9060005260206000200160009054906101000a900473ffffffffffffffffffffffffffffffffffffffff1673ffffffffffffffffffffffffffffffffffffffff1673ffffffffffffffffffffffffffffffffffffffff1681526020019081526020016000208681548110611d00577f4e487b7100000000000000000000000000000000000000000000000000000000600052603260045260246000fd5b906000526020600020906005020160030154604051611d20929190612f30565b60405180910390a150505b508080611d3790613488565b915050611861565b508080611d4b90613488565b915050611851565b507f0ee7ac6d5ec4b846dc55547540ad76e61a5e4d3a8e2a10b764367462cb19334181604051611d839190613198565b60405180910390a1600191505090565b60078181548110611da357600080fd5b906000526020600020016000915090505481565b611dbf61231e565b73ffffffffffffffffffffffffffffffffffffffff16611ddd611085565b73ffffffffffffffffffffffffffffffffffffffff1614611e33576040517f08c379a0000000000000000000000000000000000000000000000000000000008152600401611e2a90613118565b60405180910390fd5b600073ffffffffffffffffffffffffffffffffffffffff168173ffffffffffffffffffffffffffffffffffffffff161415611ea3576040517f08c379a0000000000000000000000000000000000000000000000000000000008152600401611e9a90612ff8565b60405180910390fd5b611eac81612352565b50565b60008060008060008611611ef8576040517f08c379a0000000000000000000000000000000000000000000000000000000008152600401611eef906130b8565b60405180910390fd5b670de0b6b3a7640000861015611f43576040517f08c379a0000000000000000000000000000000000000000000000000000000008152600401611f3a90612fb8565b60405180910390fd5b60008511611f86576040517f08c379a0000000000000000000000000000000000000000000000000000000008152600401611f7d90613098565b60405180910390fd5b6000805b600780549050811015611ffb578660078281548110611fd2577f4e487b7100000000000000000000000000000000000000000000000000000000600052603260045260246000fd5b90600052602060002001541415611fe857600191505b8080611ff390613488565b915050611f8a565b506001151581151514612043576040517f08c379a000000000000000000000000000000000000000000000000000000000815260040161203a90613158565b60405180910390fd5b600160009054906101000a900473ffffffffffffffffffffffffffffffffffffffff1673ffffffffffffffffffffffffffffffffffffffff166323b872dd33308a6040518463ffffffff1660e01b81526004016120a293929190612ef9565b602060405180830381600087803b1580156120bc57600080fd5b505af11580156120d0573d6000803e3d6000fd5b505050506040513d601f19601f820116820180604052508101906120f49190612600565b506000600560003373ffffffffffffffffffffffffffffffffffffffff1673ffffffffffffffffffffffffffffffffffffffff1681526020019081526020016000208054905014156121a4576006339080600181540180825580915050600190039060005260206000200160009091909190916101000a81548173ffffffffffffffffffffffffffffffffffffffff021916908373ffffffffffffffffffffffffffffffffffffffff1602179055505b60006040518060a001604052808981526020018881526020014381526020016000815260200160008152509050600560003373ffffffffffffffffffffffffffffffffffffffff1673ffffffffffffffffffffffffffffffffffffffff168152602001908152602001600020819080600181540180825580915050600190039060005260206000209060050201600090919091909150600082015181600001556020820151816001015560408201518160020155606082015181600301556080820151816004015550506122838860035461232690919063ffffffff16565b6003819055506122b86122a7896122998a610524565b61233c90919063ffffffff16565b60045461232690919063ffffffff16565b6004819055507fb58845b0a64f92dd8d1ba04f905319d6be2021b57783b3d10155e7e36a84e12833896040516122ef929190612f30565b60405180910390a180600001518160200151826040015183606001519550955095509550505092959194509250565b600033905090565b60008183612334919061332b565b905092915050565b6000818361234a91906133b2565b905092915050565b60008060009054906101000a900473ffffffffffffffffffffffffffffffffffffffff169050816000806101000a81548173ffffffffffffffffffffffffffffffffffffffff021916908373ffffffffffffffffffffffffffffffffffffffff1602179055508173ffffffffffffffffffffffffffffffffffffffff168173ffffffffffffffffffffffffffffffffffffffff167f8be0079c531659141344cd1fd0a4f28419497f9722a3daafe3b4186f6b6457e060405160405180910390a35050565b600081836124249190613381565b905092915050565b6000818361243a919061340c565b905092915050565b82805482825590600052602060002090810192821561247e579160200282015b8281111561247d578251825591602001919060010190612462565b5b50905061248b919061248f565b5090565b5b808211156124a8576000816000905550600101612490565b5090565b60006124bf6124ba8461327c565b61324b565b905080838252602082019050828560208602820111156124de57600080fd5b60005b8581101561250e57816124f4888261256c565b8452602084019350602083019250506001810190506124e1565b5050509392505050565b6000813590506125278161355e565b92915050565b600082601f83011261253e57600080fd5b813561254e8482602086016124ac565b91505092915050565b60008151905061256681613575565b92915050565b60008135905061257b8161358c565b92915050565b6000815190506125908161358c565b92915050565b6000602082840312156125a857600080fd5b60006125b684828501612518565b91505092915050565b6000602082840312156125d157600080fd5b600082013567ffffffffffffffff8111156125eb57600080fd5b6125f78482850161252d565b91505092915050565b60006020828403121561261257600080fd5b600061262084828501612557565b91505092915050565b60006020828403121561263b57600080fd5b60006126498482850161256c565b91505092915050565b60006020828403121561266457600080fd5b600061267284828501612581565b91505092915050565b6000806040838503121561268e57600080fd5b600061269c8582860161256c565b92505060206126ad8582860161256c565b9150509250929050565b600080600080600060a086880312156126cf57600080fd5b60006126dd8882890161256c565b95505060206126ee8882890161256c565b94505060406126ff88828901612518565b93505060606127108882890161256c565b92505060806127218882890161256c565b9150509295509295909350565b600061273a8383612e58565b60a08301905092915050565b60006127528383612ec0565b60208301905092915050565b61276781613440565b82525050565b6000612778826132c8565b61278281856132f8565b935061278d836132a8565b8060005b838110156127be5781516127a5888261272e565b97506127b0836132de565b925050600181019050612791565b5085935050505092915050565b60006127d6826132d3565b6127e08185613309565b93506127eb836132b8565b8060005b8381101561281c5781516128038882612746565b975061280e836132eb565b9250506001810190506127ef565b5085935050505092915050565b61283281613452565b82525050565b600061284560268361331a565b91507f54686520616d6f756e742073686f756c64206265206c6172676572207468616e60008301527f20312058485400000000000000000000000000000000000000000000000000006020830152604082019050919050565b60006128ab60278361331a565b91507f54686520616d6f756e742073686f756c64206265206c6172676572207468616e60008301527f2031205848542e000000000000000000000000000000000000000000000000006020830152604082019050919050565b600061291160268361331a565b91507f4f776e61626c653a206e6577206f776e657220697320746865207a65726f206160008301527f64647265737300000000000000000000000000000000000000000000000000006020830152604082019050919050565b6000612977602c8361331a565b91507f70656e616c74792063616e206e6f74206265206d6f7265207468616e2068756e60008301527f647265642070657263656e7400000000000000000000000000000000000000006020830152604082019050919050565b60006129dd602e8361331a565b91507f53656c6563746564207374616b6520616d6f756e742073686f7564206265206d60008301527f6f7265207468616e207a65726f2e0000000000000000000000000000000000006020830152604082019050919050565b6000612a43603f8361331a565b91507f54686572652073686f756c64206265206174206c65617374203130303030205860008301527f485420696e2074686520706f7420666f7220646973747269627574696f6e2e006020830152604082019050919050565b6000612aa960688361331a565b91507f46756e6374696f6e20657870697265642e20546869732066756e6374696f6e2060008301527f63616e206f6e6c7920626520757365642077697468696e20313935303030206260208301527f6c6f636b7320287e33302064617973292066726f6d20636f6e7472616374206360408301527f72656174696f6e2e0000000000000000000000000000000000000000000000006060830152608082019050919050565b6000612b5b60258361331a565b91507f426c6f636b20706572696f642073686f756c64206265206d6f7265207468616e60008301527f207a65726f0000000000000000000000000000000000000000000000000000006020830152604082019050919050565b6000612bc160238361331a565b91507f54686520616d6f756e742073686f756c64206265206d6f7265207468616e207a60008301527f65726f00000000000000000000000000000000000000000000000000000000006020830152604082019050919050565b6000612c2760248361331a565b91507f70656e616c74792063616e206e6f742062652061206e65676174697665206e7560008301527f6d626572000000000000000000000000000000000000000000000000000000006020830152604082019050919050565b6000612c8d603b8361331a565b91507f54686572652073686f756c64206265206174206c65617374206f6e652065786960008301527f7374696e67207374616b6520746f2072656d6f76652066726f6d2e00000000006020830152604082019050919050565b6000612cf360208361331a565b91507f4f776e61626c653a2063616c6c6572206973206e6f7420746865206f776e65726000830152602082019050919050565b6000612d3360248361331a565b91507f54686520616d6f756e742073686f756c64206265206d6f7265207468616e207a60008301527f65726f2e000000000000000000000000000000000000000000000000000000006020830152604082019050919050565b6000612d9960358361331a565b91507f506572696f642073686f756c6420666f6c6c6f77206f6e65207468652070726560008301527f20736574207374616b696e6720706572696f64732e00000000000000000000006020830152604082019050919050565b6000612dff60268361331a565b91507f426c6f636b20706572696f642073686f756c64206265206d6f7265207468616e60008301527f207a65726f2e00000000000000000000000000000000000000000000000000006020830152604082019050919050565b60a082016000820151612e6e6000850182612ec0565b506020820151612e816020850182612ec0565b506040820151612e946040850182612ec0565b506060820151612ea76060850182612ec0565b506080820151612eba6080850182612ec0565b50505050565b612ec98161347e565b82525050565b612ed88161347e565b82525050565b6000602082019050612ef3600083018461275e565b92915050565b6000606082019050612f0e600083018661275e565b612f1b602083018561275e565b612f286040830184612ecf565b949350505050565b6000604082019050612f45600083018561275e565b612f526020830184612ecf565b9392505050565b60006020820190508181036000830152612f73818461276d565b905092915050565b60006020820190508181036000830152612f9581846127cb565b905092915050565b6000602082019050612fb26000830184612829565b92915050565b60006020820190508181036000830152612fd181612838565b9050919050565b60006020820190508181036000830152612ff18161289e565b9050919050565b6000602082019050818103600083015261301181612904565b9050919050565b600060208201905081810360008301526130318161296a565b9050919050565b60006020820190508181036000830152613051816129d0565b9050919050565b6000602082019050818103600083015261307181612a36565b9050919050565b6000602082019050818103600083015261309181612a9c565b9050919050565b600060208201905081810360008301526130b181612b4e565b9050919050565b600060208201905081810360008301526130d181612bb4565b9050919050565b600060208201905081810360008301526130f181612c1a565b9050919050565b6000602082019050818103600083015261311181612c80565b9050919050565b6000602082019050818103600083015261313181612ce6565b9050919050565b6000602082019050818103600083015261315181612d26565b9050919050565b6000602082019050818103600083015261317181612d8c565b9050919050565b6000602082019050818103600083015261319181612df2565b9050919050565b60006020820190506131ad6000830184612ecf565b92915050565b60006080820190506131c86000830187612ecf565b6131d56020830186612ecf565b6131e26040830185612ecf565b6131ef6060830184612ecf565b95945050505050565b600060a08201905061320d6000830188612ecf565b61321a6020830187612ecf565b6132276040830186612ecf565b6132346060830185612ecf565b6132416080830184612ecf565b9695505050505050565b6000604051905081810181811067ffffffffffffffff821117156132725761327161352f565b5b8060405250919050565b600067ffffffffffffffff8211156132975761329661352f565b5b602082029050602081019050919050565b6000819050602082019050919050565b6000819050602082019050919050565b600081519050919050565b600081519050919050565b6000602082019050919050565b6000602082019050919050565b600082825260208201905092915050565b600082825260208201905092915050565b600082825260208201905092915050565b60006133368261347e565b91506133418361347e565b9250827fffffffffffffffffffffffffffffffffffffffffffffffffffffffffffffffff03821115613376576133756134d1565b5b828201905092915050565b600061338c8261347e565b91506133978361347e565b9250826133a7576133a6613500565b5b828204905092915050565b60006133bd8261347e565b91506133c88361347e565b9250817fffffffffffffffffffffffffffffffffffffffffffffffffffffffffffffffff0483118215151615613401576134006134d1565b5b828202905092915050565b60006134178261347e565b91506134228361347e565b925082821015613435576134346134d1565b5b828203905092915050565b600061344b8261345e565b9050919050565b60008115159050919050565b600073ffffffffffffffffffffffffffffffffffffffff82169050919050565b6000819050919050565b60006134938261347e565b91507fffffffffffffffffffffffffffffffffffffffffffffffffffffffffffffffff8214156134c6576134c56134d1565b5b600182019050919050565b7f4e487b7100000000000000000000000000000000000000000000000000000000600052601160045260246000fd5b7f4e487b7100000000000000000000000000000000000000000000000000000000600052601260045260246000fd5b7f4e487b7100000000000000000000000000000000000000000000000000000000600052604160045260246000fd5b61356781613440565b811461357257600080fd5b50565b61357e81613452565b811461358957600080fd5b50565b6135958161347e565b81146135a057600080fd5b5056fea2646970667358221220b08a43794eb6e34cf8453a928a778c18e31e75adcf275664f233b1e25ed626e464736f6c63430008000033",
	"immutableReferences": {},
	"source": "pragma solidity ^0.8.0;\n\nimport \"./Token.sol\";\nimport \"@openzeppelin/contracts/utils/math/SafeMath.sol\";\nimport \"@openzeppelin/contracts/access/Ownable.sol\";\n\ncontract XHT is Ownable {\n\n    using SafeMath for uint256;\n\n    Token token;\n\n    struct Stake {\n        uint256 amount;\n        uint256 period;\n        uint256 startBlock;\n        uint256 reward;\n        uint256 closeBlock;\n    }\n\n    // Main contract pot address which is used for redistribution.\n    // The total balance of this address is cleared every time distribute function is called.\n    // Admin can change this address.\n    address public pot = 0x0000000000000000000000000000000000000000;\n\n    // Tracks the total XHT stake in the contract.\n    uint256 public totalStake = 0;\n\n    // Tracks the total weighted XHT stake in the contract. The weights`are based on periods.\n    uint256 public totalStakeWeight = 0;\n\n    // map of the addresses with the stakes its holding.\n    mapping (address => Stake[]) private stakes;\n\n    // array of staked addresses\n    address[] public addressIndices;\n\n    // stake duration for 1 block, 1 day, 1 month, 1 year based on ethereum block\n    uint256[] public periods = [1, 6500, 195000, 2372500];\n\n    // penalty for early removal of stake in percentage. default value is 10%\n    uint256 public penalty = 10;\n\n    // The block number in which the contract is deployed.\n    // This is used for stake migrations for a short period after the contract deployment.\n    uint public deployedBlock = block.number;\n\n    event RewardEvent(address _address, uint256 _reward);\n    event DistributeEvent(uint256 _amount);\n    event StakeEvent(address _address, uint256 _amount);\n    event UnstakeEvent(address _address, uint256 _amount);\n\n    constructor(Token _token) {\n        // It should be set during deployment with XHT token contract address.\n        token = _token;\n    }\n    \n    /**\n    * Returns specific stake data.\n    *\n    * @param {address} _staker The address of staker to retrieve stake data from.\n    */\n    function getStake(address _staker) public view returns (Stake[] memory) {\n        return (stakes[_staker]);\n    }\n\n    /**\n    * Returns weight of specific period. Determines the importance of the period in distribution calculation.\n    *\n    * @param {uint256} _period The specific period to get the weight for.\n    */\n    function getStakeWeight(uint256 _period) public view returns (uint256) {\n        uint256 weight = 0;\n        for (uint i=0; i<periods.length; i++) {\n            if (periods[i] == _period) {\n                // period index plus 1 is the weight of the period. The periods array order is important\n                weight = i + 1;\n            }\n        }\n        return weight;\n    }\n\n    /**\n    * Returns total reward of all the active stakes.\n    */\n    function getTotalReward() public view returns (uint256) {\n        uint256 reward = 0;\n        \n        for (uint i=0; i<addressIndices.length; i++) {\n            for (uint j=0; j<stakes[addressIndices[i]].length; j++) {\n                Stake memory s = stakes[addressIndices[i]][j];\n                reward = reward.add(s.reward);\n            }\n        }\n        return reward;\n    }\n\n    /**\n    * Returns stake data.\n    *\n    * @param {uint256} _amount The amount of XHT to be staked.\n    * @param {uint256} _period The duration for stake.\n    */\n    function addStake(uint256 _amount, uint256 _period) public returns (uint256, uint256, uint256, uint256) {\n        require(_amount > 0 , \"The amount should be more than zero\");\n        require(_amount >= 10**18 , \"The amount should be larger than 1 XHT\");\n        require(_period > 0 , \"Block period should be more than zero\");\n\n        // Flag to check if the period set by the user is among the periods set in the contract.\n        bool check = false;\n        for (uint i=0; i<periods.length; i++) {\n            if (periods[i] == _period) {\n                check = true;\n            }\n        }\n        require(check == true, \"Period should follow one the pre set staking periods.\");     \n\n        token.transferFrom(msg.sender, address(this), _amount);\n\n        if (stakes[msg.sender].length == 0) {\n            // First time staking with this address\n            addressIndices.push(msg.sender);\n        }\n\n        Stake memory s = Stake(_amount, _period, block.number, 0, 0);\n        stakes[msg.sender].push(s);\n    \n        totalStake = totalStake.add(_amount);\n        totalStakeWeight = totalStakeWeight.add(getStakeWeight(_period).mul(_amount));\n\n        emit StakeEvent(msg.sender, _amount);\n        return (s.amount, s.period, s.startBlock, s.reward);\n    }\n\n    /**\n    * Returns the stake data.\n    *\n    * @param {uint256} _index Array index of the stake to be removed.\n    */\n    function removeStake(uint256 _index) public returns (uint256, uint256, uint256, uint256, uint256) {\n\n        require(stakes[msg.sender].length > 0, \"There should be at least one existing stake to remove from.\");\n\n        Stake memory s = stakes[msg.sender][_index];\n        require(s.amount > 0 , \"Selected stake amount shoud be more than zero.\");\n\n        uint256 receivedAmount = s.amount;\n        uint256 penaltyAmount = 0;\n        if (s.startBlock.add(s.period) > block.number) {\n            // Add 10% penalty for early removal and no allocation of rewards\n            penaltyAmount = receivedAmount.mul(penalty).div(100);\n            receivedAmount = receivedAmount.sub(penaltyAmount);\n        } else {\n            receivedAmount = receivedAmount.add(s.reward);\n        }\n\n        if (penaltyAmount > 0) {\n            // Send the deducted penalty and reward back to the pot for redistribution\n            penaltyAmount = penaltyAmount.add(s.reward);\n            token.transfer(pot, penaltyAmount);\n        }\n\n        // Send the unstaked amount to the user\n        token.transfer(msg.sender, receivedAmount);\n\n        // Reset the stake\n        stakes[msg.sender][_index] = Stake(0, s.period, s.startBlock, 0, block.number);\n\n        totalStake = totalStake.sub(s.amount);\n        totalStakeWeight = totalStakeWeight.sub(getStakeWeight(s.period).mul(s.amount));\n        \n        emit UnstakeEvent(msg.sender, receivedAmount);\n        return (0, s.period, s.startBlock, 0, block.number);\n    }\n\n    /**\n    * Returns true. Distribute the pot balance among stakers.\n    */\n    function distribute() public returns (bool) {\n        uint256 potBalance = token.balanceOf(pot);\n        require(potBalance >= 10**22, \"There should be at least 10000 XHT in the pot for distribution.\");\n\n        token.transferFrom(pot, address(this), potBalance);\n\n        for (uint i=0; i<addressIndices.length; i++) {\n            for (uint j=0; j<stakes[addressIndices[i]].length; j++) {\n                Stake memory s = stakes[addressIndices[i]][j];\n                if (s.amount > 0) {\n                    uint256 weightedAmount = getStakeWeight(s.period).mul(s.amount);                     \n                    uint256 reward = weightedAmount.mul(potBalance).div(totalStakeWeight);\n                    stakes[addressIndices[i]][j].reward = s.reward.add(reward);\n                    emit RewardEvent(addressIndices[i], stakes[addressIndices[i]][j].reward);\n                }\n            }\n        }\n        emit DistributeEvent(potBalance);\n        return true;\n    }\n\n    /**\n    * Returns the new pot address. Can only be executed by the admin.\n    *\n    * @param {uint256} _address The new pot address.\n    */\n    function setPotAddress(address _address) public onlyOwner returns (address) {\n        pot = _address;\n        return pot;\n    }\n\n    /**\n    * Returns the new pot address. It can only be executed by the admin.\n    *\n    * @param {uint256} _penalty The new penalty in percentage.\n    */\n    function setPenalty(uint256 _penalty) public onlyOwner returns (uint256) {\n        require(_penalty <= 100, \"penalty can not be more than hundred percent\");\n        require(_penalty >= 0, \"penalty can not be a negative number\");\n        penalty = _penalty;\n        return penalty;\n    }\n\n    /**\n    * Returns the new periods. Can only be executed by the admin.\n    *\n    * @param {uint256} _periods An array of the new periods.\n    */\n    function setPeriods(uint256[] memory _periods) public onlyOwner returns (uint256[] memory) {\n        periods = _periods;\n        return periods;\n    }\n\n    /**\n    * Manually sets a stake for an address. This us used for initial stake migration and can only be used by admin within within 195000 blocks (~30 days) from contract creation.\n    * Returns stake data.\n    *\n    * @param {uint256} _amount The amount of XHT to be staked.\n    * @param {uint256} _period The duration for stake.\n    * @return {address} _address Address for the staker. When remove the stake the stake amount goes to this address.\n    * @return {address} _startBlock The block this stake started. Used for migrating existing stakes initially.\n    * @return {address} _reward The reward this stake has collected. Used for migrating existing stakes initially.\n    */\n\n    function setStake(uint256 _amount, uint256 _period, address _address, uint256 _startBlock, uint256 _reward) public onlyOwner returns (uint256, uint256, uint256, uint256) {\n        require(_amount > 0 , \"The amount should be more than zero.\");\n        require(_amount >= 10**18 , \"The amount should be larger than 1 XHT.\");\n        require(_period > 0 , \"Block period should be more than zero.\");\n        require(block.number < deployedBlock + 195000 , \"Function expired. This function can only be used within 195000 blocks (~30 days) from contract creation.\");\n\n        bool check = false;\n        for (uint i=0; i<periods.length; i++) {\n            if (periods[i] == _period) {\n                check = true;\n            }\n        }\n        require(check == true, \"Period should follow one the pre set staking periods.\");     \n\n        token.transferFrom(msg.sender, address(this), _amount);\n\n        if (stakes[_address].length == 0) {\n            // First time staking with this address\n            addressIndices.push(_address);\n        }\n\n        Stake memory s = Stake(_amount, _period, _startBlock, _reward, 0);\n        stakes[_address].push(s);\n    \n        totalStake = totalStake.add(_amount);\n        totalStakeWeight = totalStakeWeight.add(getStakeWeight(_period).mul(_amount));\n\n        return (s.amount, s.period, s.startBlock, s.reward);\n    }\n}",
	"sourcePath": "/Users/abeikverdi/Documents/projects/hollaex-token/src/contracts/XHT.sol",
	"compiler": {
		"name": "solc",
		"version": "0.8.0+commit.c7dfd78e.Emscripten.clang"
	},
	"schemaVersion": "3.4.1",
	"updatedAt": "2021-10-13T08:35:48.562Z",
	"networkType": "ethereum",
	"devdoc": {
		"kind": "dev",
		"methods": {
			"addStake(uint256,uint256)": {
				"params": {
					"": "{uint256} _period The duration for stake."
				}
			},
			"getStake(address)": {
				"params": {
					"": "{address} _staker The address of staker to retrieve stake data from."
				}
			},
			"getStakeWeight(uint256)": {
				"params": {
					"": "{uint256} _period The specific period to get the weight for."
				}
			},
			"owner()": {
				"details": "Returns the address of the current owner."
			},
			"removeStake(uint256)": {
				"params": {
					"": "{uint256} _index Array index of the stake to be removed."
				}
			},
			"renounceOwnership()": {
				"details": "Leaves the contract without owner. It will not be possible to call `onlyOwner` functions anymore. Can only be called by the current owner. NOTE: Renouncing ownership will leave the contract without an owner, thereby removing any functionality that is only available to the owner."
			},
			"setPenalty(uint256)": {
				"params": {
					"": "{uint256} _penalty The new penalty in percentage."
				}
			},
			"setPeriods(uint256[])": {
				"params": {
					"": "{uint256} _periods An array of the new periods."
				}
			},
			"setPotAddress(address)": {
				"params": {
					"": "{uint256} _address The new pot address."
				}
			},
			"setStake(uint256,uint256,address,uint256,uint256)": {
				"params": {
					"": "{uint256} _period The duration for stake."
				},
				"returns": {
					"_0": "{address} _address Address for the staker. When remove the stake the stake amount goes to this address.",
					"_1": "{address} _startBlock The block this stake started. Used for migrating existing stakes initially.",
					"_2": "{address} _reward The reward this stake has collected. Used for migrating existing stakes initially."
				}
			},
			"transferOwnership(address)": {
				"details": "Transfers ownership of the contract to a new account (`newOwner`). Can only be called by the current owner."
			}
		},
		"version": 1
	},
	"userdoc": {
		"kind": "user",
		"methods": {
			"addStake(uint256,uint256)": {
				"notice": "Returns stake data."
			},
			"distribute()": {
				"notice": "Returns true. Distribute the pot balance among stakers."
			},
			"getStake(address)": {
				"notice": "Returns specific stake data."
			},
			"getStakeWeight(uint256)": {
				"notice": "Returns weight of specific period. Determines the importance of the period in distribution calculation."
			},
			"getTotalReward()": {
				"notice": "Returns total reward of all the active stakes."
			},
			"removeStake(uint256)": {
				"notice": "Returns the stake data."
			},
			"setPenalty(uint256)": {
				"notice": "Returns the new pot address. It can only be executed by the admin."
			},
			"setPeriods(uint256[])": {
				"notice": "Returns the new periods. Can only be executed by the admin."
			},
			"setPotAddress(address)": {
				"notice": "Returns the new pot address. Can only be executed by the admin."
			},
			"setStake(uint256,uint256,address,uint256,uint256)": {
				"notice": "Manually sets a stake for an address. This us used for initial stake migration and can only be used by admin within within 195000 blocks (~30 days) from contract creation. Returns stake data."
			}
		},
		"version": 1
	}
}